{
    "_format": "hh-sol-artifact-1",
    "contractName": "MultiSigWallet",
    "sourceName": "contracts/MultiSigWallet.sol",
    "abi": [
        {
            "inputs": [
                {
                    "internalType": "address[]",
                    "name": "_owners",
                    "type": "address[]"
                },
                {
                    "internalType": "uint256",
                    "name": "_required",
                    "type": "uint256"
                }
            ],
            "stateMutability": "nonpayable",
            "type": "constructor"
        },
        {
            "anonymous": false,
            "inputs": [
                {
                    "indexed": true,
                    "internalType": "address",
                    "name": "owner",
                    "type": "address"
                },
                {
                    "indexed": true,
                    "internalType": "uint256",
                    "name": "txnId",
                    "type": "uint256"
                }
            ],
            "name": "ApproveTransaction",
            "type": "event"
        },
        {
            "anonymous": false,
            "inputs": [
                {
                    "indexed": true,
                    "internalType": "address",
                    "name": "sender",
                    "type": "address"
                },
                {
                    "indexed": false,
                    "internalType": "uint256",
                    "name": "amount",
                    "type": "uint256"
                },
                {
                    "indexed": false,
                    "internalType": "uint256",
                    "name": "balance",
                    "type": "uint256"
                }
            ],
            "name": "Deposit",
            "type": "event"
        },
        {
            "anonymous": false,
            "inputs": [
                {
                    "indexed": true,
                    "internalType": "address",
                    "name": "owner",
                    "type": "address"
                },
                {
                    "indexed": true,
                    "internalType": "uint256",
                    "name": "txnId",
                    "type": "uint256"
                }
            ],
            "name": "ExecuteTransaction",
            "type": "event"
        },
        {
            "anonymous": false,
            "inputs": [
                {
                    "indexed": true,
                    "internalType": "address",
                    "name": "owner",
                    "type": "address"
                },
                {
                    "indexed": true,
                    "internalType": "uint256",
                    "name": "txnId",
                    "type": "uint256"
                }
            ],
            "name": "RevokeApproval",
            "type": "event"
        },
        {
            "anonymous": false,
            "inputs": [
                {
                    "indexed": true,
                    "internalType": "address",
                    "name": "owner",
                    "type": "address"
                },
                {
                    "indexed": true,
                    "internalType": "address",
                    "name": "to",
                    "type": "address"
                },
                {
                    "indexed": false,
                    "internalType": "uint256",
                    "name": "value",
                    "type": "uint256"
                }
            ],
            "name": "SubmitTransaction",
            "type": "event"
        },
        {
            "inputs": [
                {
                    "internalType": "uint256",
                    "name": "_txnId",
                    "type": "uint256"
                }
            ],
            "name": "approve",
            "outputs": [],
            "stateMutability": "nonpayable",
            "type": "function"
        },
        {
            "inputs": [
                {
                    "internalType": "uint256",
                    "name": "",
                    "type": "uint256"
                },
                {
                    "internalType": "address",
                    "name": "",
                    "type": "address"
                }
            ],
            "name": "approved",
            "outputs": [
                {
                    "internalType": "bool",
                    "name": "",
                    "type": "bool"
                }
            ],
            "stateMutability": "view",
            "type": "function"
        },
        {
            "inputs": [
                {
                    "internalType": "uint256",
                    "name": "_txnId",
                    "type": "uint256"
                }
            ],
            "name": "execute",
            "outputs": [],
            "stateMutability": "nonpayable",
            "type": "function"
        },
        {
            "inputs": [],
            "name": "getOwners",
            "outputs": [
                {
                    "internalType": "address[]",
                    "name": "",
                    "type": "address[]"
                }
            ],
            "stateMutability": "view",
            "type": "function"
        },
        {
            "inputs": [],
            "name": "getTransactions",
            "outputs": [
                {
                    "components": [
                        {
                            "internalType": "address",
                            "name": "to",
                            "type": "address"
                        },
                        {
                            "internalType": "uint256",
                            "name": "value",
                            "type": "uint256"
                        },
                        {
                            "internalType": "bool",
                            "name": "executed",
                            "type": "bool"
                        }
                    ],
                    "internalType": "struct MultiSigWallet.Transaction[]",
                    "name": "",
                    "type": "tuple[]"
                }
            ],
            "stateMutability": "view",
            "type": "function"
        },
        {
            "inputs": [],
            "name": "getWalletAddress",
            "outputs": [
                {
                    "internalType": "address",
                    "name": "",
                    "type": "address"
                }
            ],
            "stateMutability": "view",
            "type": "function"
        },
        {
            "inputs": [],
            "name": "getWalletBalance",
            "outputs": [
                {
                    "internalType": "uint256",
                    "name": "",
                    "type": "uint256"
                }
            ],
            "stateMutability": "view",
            "type": "function"
        },
        {
            "inputs": [
                {
                    "internalType": "address",
                    "name": "",
                    "type": "address"
                }
            ],
            "name": "isOwner",
            "outputs": [
                {
                    "internalType": "bool",
                    "name": "",
                    "type": "bool"
                }
            ],
            "stateMutability": "view",
            "type": "function"
        },
        {
            "inputs": [
                {
                    "internalType": "uint256",
                    "name": "",
                    "type": "uint256"
                }
            ],
            "name": "owners",
            "outputs": [
                {
                    "internalType": "address",
                    "name": "",
                    "type": "address"
                }
            ],
            "stateMutability": "view",
            "type": "function"
        },
        {
            "inputs": [],
            "name": "required",
            "outputs": [
                {
                    "internalType": "uint256",
                    "name": "",
                    "type": "uint256"
                }
            ],
            "stateMutability": "view",
            "type": "function"
        },
        {
            "inputs": [
                {
                    "internalType": "uint256",
                    "name": "_txnId",
                    "type": "uint256"
                }
            ],
            "name": "revoke",
            "outputs": [],
            "stateMutability": "nonpayable",
            "type": "function"
        },
        {
            "inputs": [
                {
                    "internalType": "address",
                    "name": "_to",
                    "type": "address"
                },
                {
                    "internalType": "uint256",
                    "name": "_value",
                    "type": "uint256"
                }
            ],
            "name": "submit",
            "outputs": [],
            "stateMutability": "nonpayable",
            "type": "function"
        },
        {
            "inputs": [
                {
                    "internalType": "uint256",
                    "name": "",
                    "type": "uint256"
                }
            ],
            "name": "transactions",
            "outputs": [
                {
                    "internalType": "address",
                    "name": "to",
                    "type": "address"
                },
                {
                    "internalType": "uint256",
                    "name": "value",
                    "type": "uint256"
                },
                {
                    "internalType": "bool",
                    "name": "executed",
                    "type": "bool"
                }
            ],
            "stateMutability": "view",
            "type": "function"
        },
        {
            "inputs": [],
            "name": "txnCount",
            "outputs": [
                {
                    "internalType": "uint256",
                    "name": "",
                    "type": "uint256"
                }
            ],
            "stateMutability": "view",
            "type": "function"
        },
        {
            "stateMutability": "payable",
            "type": "receive"
        }
    ],
    "bytecode": "0x60806040523480156200001157600080fd5b506040516200233f3803806200233f8339818101604052810190620000379190620003da565b60008251116200007e576040517f08c379a00000000000000000000000000000000000000000000000000000000081526004016200007590620004d0565b60405180910390fd5b60008111801562000090575081518111155b620000d2576040517f08c379a0000000000000000000000000000000000000000000000000000000008152600401620000c990620004f2565b60405180910390fd5b60005b8251811015620002fa5760008382815181106200011b577f4e487b7100000000000000000000000000000000000000000000000000000000600052603260045260246000fd5b60200260200101519050600073ffffffffffffffffffffffffffffffffffffffff168173ffffffffffffffffffffffffffffffffffffffff16141562000198576040517f08c379a00000000000000000000000000000000000000000000000000000000081526004016200018f9062000514565b60405180910390fd5b600360008273ffffffffffffffffffffffffffffffffffffffff1673ffffffffffffffffffffffffffffffffffffffff16815260200190815260200160002060009054906101000a900460ff161562000228576040517f08c379a00000000000000000000000000000000000000000000000000000000081526004016200021f9062000536565b60405180910390fd5b6001600360008373ffffffffffffffffffffffffffffffffffffffff1673ffffffffffffffffffffffffffffffffffffffff16815260200190815260200160002060006101000a81548160ff0219169083151502179055506000819080600181540180825580915050600190039060005260206000200160009091909190916101000a81548173ffffffffffffffffffffffffffffffffffffffff021916908373ffffffffffffffffffffffffffffffffffffffff160217905550508080620002f19062000635565b915050620000d5565b50806001819055505050620007f0565b6000620003216200031b8462000581565b62000558565b905080838252602082019050828560208602820111156200034157600080fd5b60005b858110156200037557816200035a88826200037f565b84526020840193506020830192505060018101905062000344565b5050509392505050565b6000815190506200039081620007bc565b92915050565b600082601f830112620003a857600080fd5b8151620003ba8482602086016200030a565b91505092915050565b600081519050620003d481620007d6565b92915050565b60008060408385031215620003ee57600080fd5b600083015167ffffffffffffffff8111156200040957600080fd5b620004178582860162000396565b92505060206200042a85828601620003c3565b9150509250929050565b600062000443600f83620005b0565b91506200045082620006f2565b602082019050919050565b60006200046a602483620005b0565b915062000477826200071b565b604082019050919050565b600062000491601e83620005b0565b91506200049e826200076a565b602082019050919050565b6000620004b8601483620005b0565b9150620004c58262000793565b602082019050919050565b60006020820190508181036000830152620004eb8162000434565b9050919050565b600060208201905081810360008301526200050d816200045b565b9050919050565b600060208201905081810360008301526200052f8162000482565b9050919050565b600060208201905081810360008301526200055181620004a9565b9050919050565b60006200056462000577565b9050620005728282620005ff565b919050565b6000604051905090565b600067ffffffffffffffff8211156200059f576200059e620006b2565b5b602082029050602081019050919050565b600082825260208201905092915050565b6000620005ce82620005d5565b9050919050565b600073ffffffffffffffffffffffffffffffffffffffff82169050919050565b6000819050919050565b6200060a82620006e1565b810181811067ffffffffffffffff821117156200062c576200062b620006b2565b5b80604052505050565b60006200064282620005f5565b91507fffffffffffffffffffffffffffffffffffffffffffffffffffffffffffffffff82141562000678576200067762000683565b5b600182019050919050565b7f4e487b7100000000000000000000000000000000000000000000000000000000600052601160045260246000fd5b7f4e487b7100000000000000000000000000000000000000000000000000000000600052604160045260246000fd5b6000601f19601f8301169050919050565b7f4f776e6572732052657175697265640000000000000000000000000000000000600082015250565b7f506c656173652070726f766964652076616c6964207265717569726564206e7560008201527f6d62657200000000000000000000000000000000000000000000000000000000602082015250565b7f506c656173652070726f7669646520612076616c696420616464726573730000600082015250565b7f50726f7669646520756e69717565206f776e6572000000000000000000000000600082015250565b620007c781620005c1565b8114620007d357600080fd5b50565b620007e181620005f5565b8114620007ed57600080fd5b50565b611b3f80620008006000396000f3fe6080604052600436106100e15760003560e01c80638253951a1161007f578063a0e67e2b11610059578063a0e67e2b14610331578063b759f9541461035c578063dc8452cd14610385578063fe0d94c1146103b057610138565b80638253951a1461028a57806383920e90146102c75780639ace38c2146102f257610138565b806320c5429b116100bb57806320c5429b146101ce5780632f54bf6e146101f7578063329a27e71461023457806378ce13651461025f57610138565b8063025e7c271461013d57806304d2dec61461017a578063203dd666146101a557610138565b36610138573373ffffffffffffffffffffffffffffffffffffffff167f90890809c654f11d6e72a28fa60149770a0d11ec6c92319d6ceb2bb0a4ea1a15344760405161012e9291906117ec565b60405180910390a2005b600080fd5b34801561014957600080fd5b50610164600480360381019061015f9190611326565b6103d9565b6040516101719190611640565b60405180910390f35b34801561018657600080fd5b5061018f610418565b60405161019c9190611640565b60405180910390f35b3480156101b157600080fd5b506101cc60048036038101906101c791906112ea565b610420565b005b3480156101da57600080fd5b506101f560048036038101906101f09190611326565b6105ff565b005b34801561020357600080fd5b5061021e600480360381019061021991906112c1565b61095c565b60405161022b91906116d6565b60405180910390f35b34801561024057600080fd5b5061024961097c565b60405161025691906117d1565b60405180910390f35b34801561026b57600080fd5b50610274610984565b60405161028191906117d1565b60405180910390f35b34801561029657600080fd5b506102b160048036038101906102ac919061134f565b61098a565b6040516102be91906116d6565b60405180910390f35b3480156102d357600080fd5b506102dc6109b9565b6040516102e991906116b4565b60405180910390f35b3480156102fe57600080fd5b5061031960048036038101906103149190611326565b610a93565b6040516103289392919061165b565b60405180910390f35b34801561033d57600080fd5b50610346610afa565b6040516103539190611692565b60405180910390f35b34801561036857600080fd5b50610383600480360381019061037e9190611326565b610b88565b005b34801561039157600080fd5b5061039a610e48565b6040516103a791906117d1565b60405180910390f35b3480156103bc57600080fd5b506103d760048036038101906103d29190611326565b610e4e565b005b600081815481106103e957600080fd5b906000526020600020016000915054906101000a900473ffffffffffffffffffffffffffffffffffffffff1681565b600030905090565b600360003373ffffffffffffffffffffffffffffffffffffffff1673ffffffffffffffffffffffffffffffffffffffff16815260200190815260200160002060009054906101000a900460ff166104ac576040517f08c379a00000000000000000000000000000000000000000000000000000000081526004016104a390611731565b60405180910390fd5b600560405180606001604052808473ffffffffffffffffffffffffffffffffffffffff16815260200183815260200160001515815250908060018154018082558091505060019003906000526020600020906003020160009091909190915060008201518160000160006101000a81548173ffffffffffffffffffffffffffffffffffffffff021916908373ffffffffffffffffffffffffffffffffffffffff1602179055506020820151816001015560408201518160020160006101000a81548160ff02191690831515021790555050506002600081548092919061059190611941565b91905055508173ffffffffffffffffffffffffffffffffffffffff163373ffffffffffffffffffffffffffffffffffffffff167f8abbd13d268b7e13f54f1678c780c738ba9dd92aedc9f93411aa6c7b4a381cab836040516105f391906117d1565b60405180910390a35050565b600360003373ffffffffffffffffffffffffffffffffffffffff1673ffffffffffffffffffffffffffffffffffffffff16815260200190815260200160002060009054906101000a900460ff1661068b576040517f08c379a000000000000000000000000000000000000000000000000000000000815260040161068290611731565b60405180910390fd5b8060058054905081106106d3576040517f08c379a00000000000000000000000000000000000000000000000000000000081526004016106ca90611711565b60405180910390fd5b816004600082815260200190815260200160002060003373ffffffffffffffffffffffffffffffffffffffff1673ffffffffffffffffffffffffffffffffffffffff16815260200190815260200160002060009054906101000a900460ff1615610772576040517f08c379a000000000000000000000000000000000000000000000000000000000815260040161076990611771565b60405180910390fd5b82600581815481106107ad577f4e487b7100000000000000000000000000000000000000000000000000000000600052603260045260246000fd5b906000526020600020906003020160020160009054906101000a900460ff161561080c576040517f08c379a000000000000000000000000000000000000000000000000000000000815260040161080390611791565b60405180910390fd5b6004600085815260200190815260200160002060003373ffffffffffffffffffffffffffffffffffffffff1673ffffffffffffffffffffffffffffffffffffffff16815260200190815260200160002060009054906101000a900460ff166108a9576040517f08c379a00000000000000000000000000000000000000000000000000000000081526004016108a0906116f1565b60405180910390fd5b60006004600086815260200190815260200160002060003373ffffffffffffffffffffffffffffffffffffffff1673ffffffffffffffffffffffffffffffffffffffff16815260200190815260200160002060006101000a81548160ff021916908315150217905550833373ffffffffffffffffffffffffffffffffffffffff167f1e75c0948730226138e58d1e7446b6167b5159a6904c3ac4597714f298d13df260405160405180910390a350505050565b60036020528060005260406000206000915054906101000a900460ff1681565b600047905090565b60025481565b60046020528160005260406000206020528060005260406000206000915091509054906101000a900460ff1681565b60606005805480602002602001604051908101604052809291908181526020016000905b82821015610a8a57838290600052602060002090600302016040518060600160405290816000820160009054906101000a900473ffffffffffffffffffffffffffffffffffffffff1673ffffffffffffffffffffffffffffffffffffffff1673ffffffffffffffffffffffffffffffffffffffff168152602001600182015481526020016002820160009054906101000a900460ff161515151581525050815260200190600101906109dd565b50505050905090565b60058181548110610aa357600080fd5b90600052602060002090600302016000915090508060000160009054906101000a900473ffffffffffffffffffffffffffffffffffffffff16908060010154908060020160009054906101000a900460ff16905083565b60606000805480602002602001604051908101604052809291908181526020018280548015610b7e57602002820191906000526020600020905b8160009054906101000a900473ffffffffffffffffffffffffffffffffffffffff1673ffffffffffffffffffffffffffffffffffffffff1681526020019060010190808311610b34575b5050505050905090565b600360003373ffffffffffffffffffffffffffffffffffffffff1673ffffffffffffffffffffffffffffffffffffffff16815260200190815260200160002060009054906101000a900460ff16610c14576040517f08c379a0000000000000000000000000000000000000000000000000000000008152600401610c0b90611731565b60405180910390fd5b806005805490508110610c5c576040517f08c379a0000000000000000000000000000000000000000000000000000000008152600401610c5390611711565b60405180910390fd5b816004600082815260200190815260200160002060003373ffffffffffffffffffffffffffffffffffffffff1673ffffffffffffffffffffffffffffffffffffffff16815260200190815260200160002060009054906101000a900460ff1615610cfb576040517f08c379a0000000000000000000000000000000000000000000000000000000008152600401610cf290611771565b60405180910390fd5b8260058181548110610d36577f4e487b7100000000000000000000000000000000000000000000000000000000600052603260045260246000fd5b906000526020600020906003020160020160009054906101000a900460ff1615610d95576040517f08c379a0000000000000000000000000000000000000000000000000000000008152600401610d8c90611791565b60405180910390fd5b60016004600086815260200190815260200160002060003373ffffffffffffffffffffffffffffffffffffffff1673ffffffffffffffffffffffffffffffffffffffff16815260200190815260200160002060006101000a81548160ff021916908315150217905550833373ffffffffffffffffffffffffffffffffffffffff167ffa624aadd8a0eae4ee975eae5cf13c9803b361b7fa2d832427db6207c088219360405160405180910390a350505050565b60015481565b600360003373ffffffffffffffffffffffffffffffffffffffff1673ffffffffffffffffffffffffffffffffffffffff16815260200190815260200160002060009054906101000a900460ff16610eda576040517f08c379a0000000000000000000000000000000000000000000000000000000008152600401610ed190611731565b60405180910390fd5b806005805490508110610f22576040517f08c379a0000000000000000000000000000000000000000000000000000000008152600401610f1990611711565b60405180910390fd5b8160058181548110610f5d577f4e487b7100000000000000000000000000000000000000000000000000000000600052603260045260246000fd5b906000526020600020906003020160020160009054906101000a900460ff1615610fbc576040517f08c379a0000000000000000000000000000000000000000000000000000000008152600401610fb390611791565b60405180910390fd5b600154610fc884611191565b1015611009576040517f08c379a0000000000000000000000000000000000000000000000000000000008152600401611000906117b1565b60405180910390fd5b600060058481548110611045577f4e487b7100000000000000000000000000000000000000000000000000000000600052603260045260246000fd5b9060005260206000209060030201905060018160020160006101000a81548160ff02191690831515021790555060008160000160009054906101000a900473ffffffffffffffffffffffffffffffffffffffff1673ffffffffffffffffffffffffffffffffffffffff1682600101546040516110c09061162b565b60006040518083038185875af1925050503d80600081146110fd576040519150601f19603f3d011682016040523d82523d6000602084013e611102565b606091505b5050905080611146576040517f08c379a000000000000000000000000000000000000000000000000000000000815260040161113d90611751565b60405180910390fd5b843373ffffffffffffffffffffffffffffffffffffffff167f5445f318f4f5fcfb66592e68e0cc5822aa15664039bd5f0ffde24c5a8142b1ac60405160405180910390a35050505050565b60008060005b60008054905081101561128d576004600085815260200190815260200160002060008083815481106111f2577f4e487b7100000000000000000000000000000000000000000000000000000000600052603260045260246000fd5b9060005260206000200160009054906101000a900473ffffffffffffffffffffffffffffffffffffffff1673ffffffffffffffffffffffffffffffffffffffff1673ffffffffffffffffffffffffffffffffffffffff16815260200190815260200160002060009054906101000a900460ff161561127a5760018261127791906118a3565b91505b808061128590611941565b915050611197565b5080915050919050565b6000813590506112a681611adb565b92915050565b6000813590506112bb81611af2565b92915050565b6000602082840312156112d357600080fd5b60006112e184828501611297565b91505092915050565b600080604083850312156112fd57600080fd5b600061130b85828601611297565b925050602061131c858286016112ac565b9150509250929050565b60006020828403121561133857600080fd5b6000611346848285016112ac565b91505092915050565b6000806040838503121561136257600080fd5b6000611370858286016112ac565b925050602061138185828601611297565b9150509250929050565b600061139783836113bb565b60208301905092915050565b60006113af83836115cb565b60608301905092915050565b6113c4816118f9565b82525050565b6113d3816118f9565b82525050565b60006113e482611835565b6113ee8185611865565b93506113f983611815565b8060005b8381101561142a578151611411888261138b565b975061141c8361184b565b9250506001810190506113fd565b5085935050505092915050565b600061144282611840565b61144c8185611876565b935061145783611825565b8060005b8381101561148857815161146f88826113a3565b975061147a83611858565b92505060018101905061145b565b5085935050505092915050565b61149e8161190b565b82525050565b6114ad8161190b565b82525050565b60006114c0601c83611892565b91506114cb826119b9565b602082019050919050565b60006114e3601b83611892565b91506114ee826119e2565b602082019050919050565b6000611506601583611892565b915061151182611a0b565b602082019050919050565b6000611529601383611892565b915061153482611a34565b602082019050919050565b600061154c600083611887565b915061155782611a5d565b600082019050919050565b600061156f601d83611892565b915061157a82611a60565b602082019050919050565b6000611592601d83611892565b915061159d82611a89565b602082019050919050565b60006115b5601b83611892565b91506115c082611ab2565b602082019050919050565b6060820160008201516115e160008501826113bb565b5060208201516115f4602085018261160d565b5060408201516116076040850182611495565b50505050565b61161681611937565b82525050565b61162581611937565b82525050565b60006116368261153f565b9150819050919050565b600060208201905061165560008301846113ca565b92915050565b600060608201905061167060008301866113ca565b61167d602083018561161c565b61168a60408301846114a4565b949350505050565b600060208201905081810360008301526116ac81846113d9565b905092915050565b600060208201905081810360008301526116ce8184611437565b905092915050565b60006020820190506116eb60008301846114a4565b92915050565b6000602082019050818103600083015261170a816114b3565b9050919050565b6000602082019050818103600083015261172a816114d6565b9050919050565b6000602082019050818103600083015261174a816114f9565b9050919050565b6000602082019050818103600083015261176a8161151c565b9050919050565b6000602082019050818103600083015261178a81611562565b9050919050565b600060208201905081810360008301526117aa81611585565b9050919050565b600060208201905081810360008301526117ca816115a8565b9050919050565b60006020820190506117e6600083018461161c565b92915050565b6000604082019050611801600083018561161c565b61180e602083018461161c565b9392505050565b6000819050602082019050919050565b6000819050602082019050919050565b600081519050919050565b600081519050919050565b6000602082019050919050565b6000602082019050919050565b600082825260208201905092915050565b600082825260208201905092915050565b600081905092915050565b600082825260208201905092915050565b60006118ae82611937565b91506118b983611937565b9250827fffffffffffffffffffffffffffffffffffffffffffffffffffffffffffffffff038211156118ee576118ed61198a565b5b828201905092915050565b600061190482611917565b9050919050565b60008115159050919050565b600073ffffffffffffffffffffffffffffffffffffffff82169050919050565b6000819050919050565b600061194c82611937565b91507fffffffffffffffffffffffffffffffffffffffffffffffffffffffffffffffff82141561197f5761197e61198a565b5b600182019050919050565b7f4e487b7100000000000000000000000000000000000000000000000000000000600052601160045260246000fd5b7f5472616e73616374696f6e206e6f7420617070726f7665642079657400000000600082015250565b7f5472616e73616374696f6e20646f6573206e6f74206578697374210000000000600082015250565b7f596f7520617265206e6f7420746865206f776e65720000000000000000000000600082015250565b7f7472616e73616374696f6e206661696c65642100000000000000000000000000600082015250565b50565b7f5472616e73616374696f6e20616c726561647920617070726f76656421000000600082015250565b7f5472616e73616374696f6e20616c726561647920657865637574656421000000600082015250565b7f5265717569726564205369676e6174757265206e6f74206d6574210000000000600082015250565b611ae4816118f9565b8114611aef57600080fd5b50565b611afb81611937565b8114611b0657600080fd5b5056fea26469706673582212206dd2bbebc8e379f8db1477c11fdc0fafc95b4d2f2bce20d4dca7c2da51ef853664736f6c63430008040033",
    "linkReferences": {},
    "deployedLinkReferences": {}
}